{
    "_format": "hh-sol-artifact-1",
    "contractName": "rainwater",
    "sourceName": "src/backend/contracts/rainwater.sol",
    "abi": [
        {
            "anonymous": false,
            "inputs": [
                {
                    "indexed": false,
                    "internalType": "uint256",
                    "name": "id",
                    "type": "uint256"
                },
                {
                    "indexed": false,
                    "internalType": "string",
                    "name": "hash",
                    "type": "string"
                },
                {
                    "indexed": false,
                    "internalType": "string",
                    "name": "description",
                    "type": "string"
                },
                {
                    "indexed": false,
                    "internalType": "uint256",
                    "name": "tipAmount",
                    "type": "uint256"
                },
                {
                    "indexed": false,
                    "internalType": "address payable",
                    "name": "author",
                    "type": "address"
                }
            ],
            "name": "ImageCreated",
            "type": "event"
        },
        {
            "anonymous": false,
            "inputs": [
                {
                    "indexed": false,
                    "internalType": "uint256",
                    "name": "id",
                    "type": "uint256"
                },
                {
                    "indexed": false,
                    "internalType": "string",
                    "name": "hash",
                    "type": "string"
                },
                {
                    "indexed": false,
                    "internalType": "string",
                    "name": "description",
                    "type": "string"
                },
                {
                    "indexed": false,
                    "internalType": "uint256",
                    "name": "tipAmount",
                    "type": "uint256"
                },
                {
                    "indexed": false,
                    "internalType": "address payable",
                    "name": "author",
                    "type": "address"
                }
            ],
            "name": "ImageTipped",
            "type": "event"
        },
        {
            "inputs": [],
            "name": "imageCount",
            "outputs": [
                {
                    "internalType": "uint256",
                    "name": "",
                    "type": "uint256"
                }
            ],
            "stateMutability": "view",
            "type": "function"
        },
        {
            "inputs": [
                {
                    "internalType": "uint256",
                    "name": "",
                    "type": "uint256"
                }
            ],
            "name": "images",
            "outputs": [
                {
                    "internalType": "uint256",
                    "name": "id",
                    "type": "uint256"
                },
                {
                    "internalType": "string",
                    "name": "hash",
                    "type": "string"
                },
                {
                    "internalType": "string",
                    "name": "description",
                    "type": "string"
                },
                {
                    "internalType": "uint256",
                    "name": "tipAmount",
                    "type": "uint256"
                },
                {
                    "internalType": "address payable",
                    "name": "author",
                    "type": "address"
                }
            ],
            "stateMutability": "view",
            "type": "function"
        },
        {
            "inputs": [],
            "name": "name",
            "outputs": [
                {
                    "internalType": "string",
                    "name": "",
                    "type": "string"
                }
            ],
            "stateMutability": "view",
            "type": "function"
        },
        {
            "inputs": [
                {
                    "internalType": "uint256",
                    "name": "_id",
                    "type": "uint256"
                }
            ],
            "name": "tipImageAuthor",
            "outputs": [],
            "stateMutability": "payable",
            "type": "function"
        },
        {
            "inputs": [
                {
                    "internalType": "string",
                    "name": "_hash",
                    "type": "string"
                },
                {
                    "internalType": "string",
                    "name": "_description",
                    "type": "string"
                }
            ],
            "name": "uploadImage",
            "outputs": [],
            "stateMutability": "payable",
            "type": "function"
        }
    ],
    "bytecode": "0x60806040526040518060400160405280600981526020017f5261696e5761746572000000000000000000000000000000000000000000000081525060009080519060200190620000519291906200006b565b5060006001553480156200006457600080fd5b5062000180565b82805462000079906200014a565b90600052602060002090601f0160209004810192826200009d5760008555620000e9565b82601f10620000b857805160ff1916838001178555620000e9565b82800160010185558215620000e9579182015b82811115620000e8578251825591602001919060010190620000cb565b5b509050620000f89190620000fc565b5090565b5b8082111562000117576000816000905550600101620000fd565b5090565b7f4e487b7100000000000000000000000000000000000000000000000000000000600052602260045260246000fd5b600060028204905060018216806200016357607f821691505b602082108114156200017a57620001796200011b565b5b50919050565b610e4280620001906000396000f3fe60806040526004361061004a5760003560e01c806306fdde031461004f578063173a50641461007a578063848564821461009657806392053b63146100d7578063a91b831414610102575b600080fd5b34801561005b57600080fd5b5061006461011e565b6040516100719190610925565b60405180910390f35b610094600480360381019061008f9190610991565b6101ac565b005b3480156100a257600080fd5b506100bd60048036038101906100b89190610991565b6104dc565b6040516100ce959493929190610a0e565b60405180910390f35b3480156100e357600080fd5b506100ec610642565b6040516100f99190610a6f565b60405180910390f35b61011c60048036038101906101179190610bbf565b610648565b005b6000805461012b90610c66565b80601f016020809104026020016040519081016040528092919081815260200182805461015790610c66565b80156101a45780601f10610179576101008083540402835291602001916101a4565b820191906000526020600020905b81548152906001019060200180831161018757829003601f168201915b505050505081565b6000811180156101be57506001548111155b6101c757600080fd5b6000600260008381526020019081526020016000206040518060a00160405290816000820154815260200160018201805461020190610c66565b80601f016020809104026020016040519081016040528092919081815260200182805461022d90610c66565b801561027a5780601f1061024f5761010080835404028352916020019161027a565b820191906000526020600020905b81548152906001019060200180831161025d57829003601f168201915b5050505050815260200160028201805461029390610c66565b80601f01602080910402602001604051908101604052809291908181526020018280546102bf90610c66565b801561030c5780601f106102e15761010080835404028352916020019161030c565b820191906000526020600020905b8154815290600101906020018083116102ef57829003601f168201915b50505050508152602001600382015481526020016004820160009054906101000a900473ffffffffffffffffffffffffffffffffffffffff1673ffffffffffffffffffffffffffffffffffffffff1673ffffffffffffffffffffffffffffffffffffffff168152505090506000816080015190508073ffffffffffffffffffffffffffffffffffffffff166108fc349081150290604051600060405180830381858888f193505050501580156103c6573d6000803e3d6000fd5b5034826060018181516103d99190610cc7565b91508181525050816002600085815260200190815260200160002060008201518160000155602082015181600101908051906020019061041a9291906107e9565b5060408201518160020190805190602001906104379291906107e9565b506060820151816003015560808201518160040160006101000a81548173ffffffffffffffffffffffffffffffffffffffff021916908373ffffffffffffffffffffffffffffffffffffffff1602179055509050507f1be5317bca8d3f70dc1efe89958be71bff36cdca33fc00a6423e25eb2f1d492f83836020015184604001518560600151856040516104cf959493929190610a0e565b60405180910390a1505050565b600260205280600052604060002060009150905080600001549080600101805461050590610c66565b80601f016020809104026020016040519081016040528092919081815260200182805461053190610c66565b801561057e5780601f106105535761010080835404028352916020019161057e565b820191906000526020600020905b81548152906001019060200180831161056157829003601f168201915b50505050509080600201805461059390610c66565b80601f01602080910402602001604051908101604052809291908181526020018280546105bf90610c66565b801561060c5780601f106105e15761010080835404028352916020019161060c565b820191906000526020600020905b8154815290600101906020018083116105ef57829003601f168201915b5050505050908060030154908060040160009054906101000a900473ffffffffffffffffffffffffffffffffffffffff16905085565b60015481565b600082511161065657600080fd5b600081511161066457600080fd5b600073ffffffffffffffffffffffffffffffffffffffff163373ffffffffffffffffffffffffffffffffffffffff16141561069e57600080fd5b600160008154809291906106b190610d1d565b91905055506040518060a001604052806001548152602001838152602001828152602001600081526020013373ffffffffffffffffffffffffffffffffffffffff168152506002600060015481526020019081526020016000206000820151816000015560208201518160010190805190602001906107319291906107e9565b50604082015181600201908051906020019061074e9291906107e9565b506060820151816003015560808201518160040160006101000a81548173ffffffffffffffffffffffffffffffffffffffff021916908373ffffffffffffffffffffffffffffffffffffffff1602179055509050507fc1d8dfa99b3f84f95d3f0bc4a768addeb97b83b20aef7f9cb6729e126bafd2f960015483836000336040516107dd959493929190610dab565b60405180910390a15050565b8280546107f590610c66565b90600052602060002090601f016020900481019282610817576000855561085e565b82601f1061083057805160ff191683800117855561085e565b8280016001018555821561085e579182015b8281111561085d578251825591602001919060010190610842565b5b50905061086b919061086f565b5090565b5b80821115610888576000816000905550600101610870565b5090565b600081519050919050565b600082825260208201905092915050565b60005b838110156108c65780820151818401526020810190506108ab565b838111156108d5576000848401525b50505050565b6000601f19601f8301169050919050565b60006108f78261088c565b6109018185610897565b93506109118185602086016108a8565b61091a816108db565b840191505092915050565b6000602082019050818103600083015261093f81846108ec565b905092915050565b6000604051905090565b600080fd5b600080fd5b6000819050919050565b61096e8161095b565b811461097957600080fd5b50565b60008135905061098b81610965565b92915050565b6000602082840312156109a7576109a6610951565b5b60006109b58482850161097c565b91505092915050565b6109c78161095b565b82525050565b600073ffffffffffffffffffffffffffffffffffffffff82169050919050565b60006109f8826109cd565b9050919050565b610a08816109ed565b82525050565b600060a082019050610a2360008301886109be565b8181036020830152610a3581876108ec565b90508181036040830152610a4981866108ec565b9050610a5860608301856109be565b610a6560808301846109ff565b9695505050505050565b6000602082019050610a8460008301846109be565b92915050565b600080fd5b600080fd5b7f4e487b7100000000000000000000000000000000000000000000000000000000600052604160045260246000fd5b610acc826108db565b810181811067ffffffffffffffff82111715610aeb57610aea610a94565b5b80604052505050565b6000610afe610947565b9050610b0a8282610ac3565b919050565b600067ffffffffffffffff821115610b2a57610b29610a94565b5b610b33826108db565b9050602081019050919050565b82818337600083830152505050565b6000610b62610b5d84610b0f565b610af4565b905082815260208101848484011115610b7e57610b7d610a8f565b5b610b89848285610b40565b509392505050565b600082601f830112610ba657610ba5610a8a565b5b8135610bb6848260208601610b4f565b91505092915050565b60008060408385031215610bd657610bd5610951565b5b600083013567ffffffffffffffff811115610bf457610bf3610956565b5b610c0085828601610b91565b925050602083013567ffffffffffffffff811115610c2157610c20610956565b5b610c2d85828601610b91565b9150509250929050565b7f4e487b7100000000000000000000000000000000000000000000000000000000600052602260045260246000fd5b60006002820490506001821680610c7e57607f821691505b60208210811415610c9257610c91610c37565b5b50919050565b7f4e487b7100000000000000000000000000000000000000000000000000000000600052601160045260246000fd5b6000610cd28261095b565b9150610cdd8361095b565b9250827fffffffffffffffffffffffffffffffffffffffffffffffffffffffffffffffff03821115610d1257610d11610c98565b5b828201905092915050565b6000610d288261095b565b91507fffffffffffffffffffffffffffffffffffffffffffffffffffffffffffffffff821415610d5b57610d5a610c98565b5b600182019050919050565b6000819050919050565b6000819050919050565b6000610d95610d90610d8b84610d66565b610d70565b61095b565b9050919050565b610da581610d7a565b82525050565b600060a082019050610dc060008301886109be565b8181036020830152610dd281876108ec565b90508181036040830152610de681866108ec565b9050610df56060830185610d9c565b610e0260808301846109ff565b969550505050505056fea2646970667358221220c8e63b4706c5fb8c5127b03e09bfe38731b46e68ae380e5a377863763c513d6264736f6c63430008090033",
    "linkReferences": {},
    "deployedLinkReferences": {}
}